:100000000C944B000C947C000C947C000C947C00B1
:100010000C947C000C947C000C947C000C947C0070
:100020000C947C000C947C000C947C000C947C0060
:100030000C947C000C947C000C947C000C947C0050
:100040000C940A010C947C000C947C000C947C00B1
:100050000C9452010C947C000C947C000C947C0059
:100060000C947C000C947C000C947C000C947C0020
:100070000C947C000C947C000C947C000C947C0010
:100080000C947C000C947C000C947C00010204080D
:1000900010204080060B11241FBECFEFD0E4DEBF3E
:1000A000CDBF11E0A0E0B1E0E4EEF6E100E00BBF6F
:1000B00002C007900D92AA3CB107D9F71BBE12E00F
:1000C000AAECB1E001C01D92A639B107E1F710E03A
:1000D000C6E9D0E000E006C022970109FE010BBF8F
:1000E0000E94320BC439D10780E00807A9F71BBE74
:1000F0000E94AA0A0C94700B0C940000ECE7F0E04C
:10010000808180648083EAE7F0E08081866080837C
:100110008081806880830895EF92FF920F931F93F0
:10012000CF9309E112E0C0E080917C00807E8C2BAF
:1001300080937C0080917A00806480937A00809123
:100140007A0086FDFCCF4091780050E060E070E0DE
:1001500080917900F82EEE24C701AA2797FDA0957B
:10016000BA2F842B952BA62BB72BBC01CD012BE0EE
:1001700030E040E050E00E94130BDC01CB01F801BD
:10018000819391938F01CF5FC83071F6CF911F910A
:100190000F91FF90EF900895FC018481882349F02E
:1001A00082819381019793838283F093D001E093BE
:1001B000CF010895E82FF0E0E457FF4FE4918091DC
:1001C00095028E2B809395020895E82FF0E0E45776
:1001D000FF4FE491E095809195028E2380939502E4
:1001E0000895F89415BC84B5826084BD16BC8EE475
:1001F00087BD85E085BD82E080936E007894089588
:1002000015BC84B5826084BD16BC8EE487BD85E0D4
:1002100085BD08951F920F920FB60F9211248F93F0
:1002200081E0809394028F910F900FBE0F901F90EA
:10023000189528E088E190E00FB6F894A89580938F
:1002400060000FBE20936000FFCFE1ECF0E0808102
:1002500088698083E2ECF0E0808186608083109280
:10026000C5008CE08093C40008959091C00095FF74
:10027000FCCF8093C60008958091C00087FFFCCF1B
:100280008091C6000895FC019081992351F0319628
:100290008091C00085FFFCCF9093C6009191992377
:1002A000B9F708951F920F920FB60F920BB60F92E7
:1002B00011242F933F934F935F936F937F938F936B
:1002C0009F93AF93BF93EF93FF938091C00087FFFD
:1002D000FCCF809143028032F1F1909143028091F2
:1002E00042029817A1F180914302E82FF0E090912B
:1002F000C600EC5BFD4F90838F5F80934302E091DB
:100300004302F0E0ED5BFD4F80818B3139F1E091EC
:100310004302F0E0ED5BFD4F80818D3029F4809148
:1003200041028F5F80934102FF91EF91BF91AF91A6
:100330009F918F917F916F915F914F913F912F91FD
:100340000F900BBE0F900FBE0F901F90189581E07D
:1003500080934002C8CF10924302BFCF0E94190180
:1003600080914202803211F4109242029091420236
:10037000E92FF0E0EC5BFD4F80819F5F909342029C
:10038000089580914202803211F410924202E0916D
:100390004202F0E0EC5BFD4F808108952091420223
:1003A0009091430281E02913089580E00895E1E0EF
:1003B000F1E03BE72091C00025FFFCCF3093C60061
:1003C00031913323B9F7FC012081222359F0FC013C
:1003D00031968091C00085FFFCCF2093C60021910B
:1003E0002223B9F7E1E1F1E092E28091C00085FFBC
:1003F000FCCF9093C60091919923B9F7CB0164E6A5
:1004000072E04AE050E00E94360BFC019081992393
:1004100051F031968091C00085FFFCCF9093C600CB
:1004200091919923B9F7E9E1F1E092E28091C0005E
:1004300085FFFCCF9093C60091919923B9F7ECE129
:10044000F1E09DE08091C00085FFFCCF9093C60055
:1004500091919923B9F70895EFE1F1E03BE72091FD
:10046000C00025FFFCCF3093C60031913323B9F78C
:10047000FC012081222359F0FC0131968091C000BB
:1004800085FFFCCF2093C60021912223B9F7E9E133
:10049000F1E092E28091C00085FFFCCF9093C6000E
:1004A00091919923B9F7ECE1F1E09DE08091C000D2
:1004B00085FFFCCF9093C60091919923B9F70895D9
:1004C000EEE2F1E02BE79091C00095FFFCCF209386
:1004D000C60021912223B9F790E064E672E04AE079
:1004E00050E00E94360BFC019081992351F0319627
:1004F0008091C00085FFFCCF9093C6009191992315
:10050000B9F7E9E1F1E092E28091C00085FFFCCF0C
:100510009093C60091919923B9F7ECE1F1E09DE049
:100520008091C00085FFFCCF9093C60091919923E4
:10053000B9F70895E1E8F0E0808181608083089553
:100540008091840090E090933B0280933A02409126
:100550008500342F20E0822B932B90933B028093D5
:100560003A0208952091840030E030933B022093BA
:100570003A0240918500942F80E0822B932B909338
:100580003B0280933A0290933F0280933E0208958B
:10059000FC012091840030E030933B0220933A022A
:1005A00040918500942F80E0282B392B30933B021B
:1005B00020933A0230933D0220933C02908199238C
:1005C00071F031968091C00085FFFCCF9093C600FA
:1005D00091919923B9F720913C0230913D0280918D
:1005E0003E0290913F02A901481B590BCA0164E6E3
:1005F00072E04AE050E00E94360BFC0190819923A2
:1006000051F031968091C00085FFFCCF9093C600D9
:1006100091919923B9F78091C00085FFFCCF8DE0BF
:100620008093C6008091C00085FFFCCF8AE0809354
:10063000C600089588E08093B80008958130A9F03D
:10064000813050F0823061F08091BC0087FFFCCF98
:100650008091B900887F089584EA8093BC00F4CF2C
:1006600084E98093BC0080E0089584E88093BC0016
:10067000EBCF1F93CF93DF93C82F162FDAE080E0E4
:100680000E941E0380933902883379F0883011F07C
:100690008031A9F4C093BB0081E00E941E038093C7
:1006A0003902803211F0883341F4D15041F7CFEF55
:1006B0008C2FDF91CF911F910895883159F0CFEFA2
:1006C00082E00E941E03809339028C2FDF91CF912C
:1006D0001F9108951093BB0081E00E941E03809338
:1006E0003902883261F7C1E0EBCF1F93CF93DF93DC
:1006F000D82FCAE0182F116080E00E941E0380935B
:100700003902883381F1883011F0803199F5D09326
:10071000BB0081E00E941E0380933902803219F1F0
:10072000883309F1883131F5D093BB0081E00E9414
:100730001E03809339028832E9F480E00E941E0390
:1007400080933902883379F0883011F0803191F448
:100750001093BB0081E00E941E038093390288340D
:1007600011F0883389F4C15039F68FEFDF91CF91C2
:100770001F91089582E00E941E03809339028FEF3B
:10078000DF91CF911F9108958034A1F781E00E94FD
:100790001E0380933902883569F78091BB00E6CF4C
:1007A00080E00E941E0380933902883321F0883054
:1007B00029F0803109F0089580E0089580E00895DF
:1007C00082E00E941E0308958093BB0081E00E9496
:1007D0001E0380933902803221F0883311F0883172
:1007E00009F0089580E0089581608093BB0081E066
:1007F0000E941E0380933902883421F0883311F05F
:10080000803409F0089580E008958093BB0081E072
:100810000E941E0380933902883209F0089580E017
:100820000895CF93DF93EC0181E00E941E03809333
:100830003902883521F48091BB00888380E0DF9104
:10084000CF9108950895CF93DF93CAE0D82FD16058
:1008500080E00E941E03883369F0883011F08031F7
:1008600089F4D093BB0081E00E941E03883411F00C
:10087000883331F4C15061F78FEFDF91CF91089544
:10088000803439F082E00E941E038FEFDF91CF9118
:10089000089581E00E941E038835A1F78091BB0076
:1008A000ECCF682F8EEE0E9439038EEE0E94230457
:1008B0000895CF93DF930F92CDB7DEB719820E94D0
:1008C000D003882329F08FEF0F90DF91CF91089507
:1008D00080E30E94E4038823B1F780EF0E940504BF
:1008E000882389F70E94D003882369F780E30E9458
:1008F000F403882341F7CE0101960E941104882356
:1009000011F70E94E0038981DFCF8FEF0E9451042D
:100910000E94590408951F93CF93DF930F92CDB790
:10092000DEB7182F19820E94D003882331F08FEF91
:100930000F90DF91CF911F91089580E30E94E4030F
:100940008823A9F782ED0E940504882381F7212FCF
:1009500030E02095309522953295307F3227207FE8
:100960003227812F822B0E940504882301F70E94E1
:10097000D0038823E1F680E30E94F4038823B9F6CC
:10098000CE0101960E941104882389F60E94E0039B
:100990008981CECFCF93DF930F92CDB7DEB7198287
:1009A0000E94D003882329F08FEF0F90DF91CF9121
:1009B000089580E30E94E4038823B1F781EE0E944A
:1009C0000504882389F783EC0E940504882361F7D6
:1009D0000E94D003882341F780E30E94F403882318
:1009E00019F7CE0101960E9411048823E9F60E94AE
:1009F000E0038981DACFCF93C82F0E94D0038823E8
:100A000019F08FEFCF91089580E30E94E4038823CB
:100A1000C1F781EE0E940504882399F78C2F0E946C
:100A20000504882371F70E94E00380E0EBCFCF93A9
:100A3000DF930F92CDB7DEB719820E94D0038823CF
:100A400029F08FEF0F90DF91CF91089580E30E94FE
:100A5000F4038823B1F7CE0101960E941104882384
:100A600081F70E94E0038981EDCFCF93DF9380EF80
:100A70000E94FB040E94170580FF0DC0C8EED3E062
:100A800002C0219741F00E9417059AE19A95F1F76B
:100A900000C080FDF6CF8170DF91CF910895CF9394
:100AA000C82F0E943505882319F08FEFCF91089544
:100AB0000E94D0038823C9F780E30E94E4038823BF
:100AC000A1F785EA0E940504882379F78C2F0E94FC
:100AD0000504882351F70E94E00380E0E7CFCF931D
:100AE000DF930F92CDB7DEB719820E94D00388231F
:100AF00029F08FEF0F90DF91CF91089580E30E944E
:100B0000E4038823B1F784EB0E940504882389F766
:100B10000E94E0030E943505882359F70E94D00304
:100B2000882339F780E30E94F403882311F7CE016C
:100B300001960E9411048823E1F60E94E003898156
:100B4000D9CFCF93C82F0E943505882319F08FEF96
:100B5000CF9108950E94D0038823C9F780E30E94B3
:100B6000E4038823A1F78C2F0E940504882379F7DA
:100B70000E94E00380E0ECCFCF93DF930F92CDB7DC
:100B8000DEB719820E943505882329F08FEF0F9078
:100B9000DF91CF9108950E94D0038823B9F780E3B5
:100BA0000E94E403882391F786E90E9405048823C4
:100BB00069F70E94E0030E943505882339F70E94F7
:100BC000D003882319F780E30E94E4038823F1F619
:100BD00081EE0E9405048823C9F681EE0E94050477
:100BE0008823A1F60E94D003882381F680E30E9427
:100BF000F403882359F6CE0101960E94110488233C
:100C000029F60E94E0038981C2CF0E946F058CEC17
:100C10000E944F058EE40E944F0580E00E944F0520
:100C200080E00E944F058FE70E944F050E946F05EC
:100C30008CEC0E944F0588E40E944F0508950E94A5
:100C4000850481E00E948B040E94050608950E949D
:100C50006F058CEC0E944F0584E40E944F058EEBDB
:100C60000E944F050895EF92FF920F931F93CF9329
:100C7000DF93CDB7DEB729970FB6F894DEBF0FBE6E
:100C8000CDBF0E946F058CEC0E944F058EEB0E9439
:100C90004F058E010F5F1F4FFAE0EF2EF12CEC0E87
:100CA000FD1E0E94BC05F80181938F01EE15FF0522
:100CB000C1F79A8180E0AA2797FDA095BA2F4981B4
:100CC00050E060E070E0842B952BA62BB72BBC0185
:100CD000CD0124E630E040E050E00E94130BDC013F
:100CE000CB01E4E0B695A79597958795EA95D1F75E
:100CF00090932A028093290229960FB6F894DEBFBA
:100D00000FBECDBFDF91CF911F910F91FF90EF905C
:100D10000895ECE7F0E0808180648083EAE7F0E00A
:100D20008081866080838081806880830895EF92CF
:100D3000FF920F931F93CF9309E112E0C0E08091DF
:100D40007C00807E8C2B80937C0080917A00806474
:100D500080937A0080917A0086FDFCCF40917800E4
:100D600050E060E070E080917900F82EEE24C70139
:100D7000AA2797FDA095BA2F842B952BA62BB72BCE
:100D8000BC01CD012BE030E040E050E00E94130BAD
:100D9000DC01CB01F801819391938F01CF5FC830C3
:100DA00071F6CF911F910F91FF90EF9008952C9ABB
:100DB0002C9808952A9A08952A9808952B982B9A8A
:100DC00008958EBD0DB407FEFDCF08958EB508952C
:100DD00084B18A6B84B98CB580658CBD8DB581601A
:100DE0008DBD299A08951092150210921602109244
:100DF0001702109218021092F701109214020E942A
:100E0000E8061EBC0DB407FEFDCF1EBC0DB407FEE8
:100E1000FDCF1EBC0DB407FEFDCF1EBC0DB407FEFA
:100E2000FDCF2C9A2C98229A2A9808954091F70188
:100E300080E090E0DC012BE1880F991FAA1FBB1F07
:100E4000E22FF0E0E850FE4F3081431708F4816054
:100E5000215090F78093150290931602A0931702E9
:100E6000B09318024F5F4093F701443610F0109290
:100E7000F7012B982B9A8091150290911602A09160
:100E80001702B09118024B2F5527662777274EBDC2
:100E90000DB407FEFDCF2EB520931402AD016627D9
:100EA00077274EBD0DB407FEFDCF892F9A2FAB2FAC
:100EB000BB278EBD0DB407FEFDCF809115028EBD00
:100EC0000DB407FEFDCF2C9A2C98089590E0885021
:100ED0009E4F0895FC012181822F869586958695E7
:100EE00069F481E090E002C0880F991F2A95E2F72B
:100EF0009091F601982B9093F6010895853009F0B2
:100F0000089530E02852304081E090E002C0880F20
:100F1000991F2A95E2F79091F501982B9093F5018E
:100F20000895CF93DF93CDB7DEB728970FB6F89427
:100F3000DEBF0FBECDBF80914102882341F1DE01AB
:100F40001196CE01099610C030914202E32FF0E0D5
:100F5000EC5BFD4F20813F5F309342022D932D309B
:100F600051F0A817B90739F020914202203261F7F9
:100F700010924202E9CF8981813421F4CE01019699
:100F80000E946A0780914102815080934102289615
:100F90000FB6F894DEBF0FBECDBFDF91CF9108959D
:100FA00021E030E002C0220F331F8A95E2F78091E2
:100FB000F601822B8093F601089590E0889721E056
:100FC00030E002C0220F331F8A95E2F78091F501CD
:100FD000822B8093F50108958091F60180FF3CC03B
:100FE000EDE3F1E09BE78091C00085FFFCCF90939B
:100FF000C60091919923B9F78091190290911A0234
:1010000064E672E04AE050E00E94360BFC019081F9
:10101000992351F031968091C00085FFFCCF9093C9
:10102000C60091919923B9F7EFE5F1E092E2809142
:10103000C00085FFFCCF9093C60091919923B9F72A
:10104000ECE1F1E09DE08091C00085FFFCCF909342
:10105000C60091919923B9F708958091F50180FF19
:101060003CC0EEE6F1E09BE78091C00085FFFCCF3D
:101070009093C60091919923B9F78091290290919C
:101080002A0264E672E04AE050E00E94360BFC015E
:101090009081992351F031968091C00085FFFCCF5B
:1010A0009093C60091919923B9F7E0E9F1E092E2BB
:1010B0008091C00085FFFCCF9093C6009191992349
:1010C000B9F7ECE1F1E09DE08091C00085FFFCCF35
:1010D0009093C60091919923B9F7089521E030E0EB
:1010E00002C0220F331F8A95E2F7832F880F880BE7
:1010F0009091C1019223E091C201E3237091C30159
:1011000078236091C40168235091C5015823409110
:10111000C60148233091C70138232091C8012823F4
:1011200081E09E2B972B962B952B942B932B922B18
:1011300009F480E0089521E030E002C0220F331F5F
:101140008A95E2F73093C2012093C101832F880F63
:10115000880B8093C3018093C4018093C501809361
:10116000C6018093C7018093C801089521E030E053
:1011700002C0220F331F8A95E2F7832F880F880B56
:101180009091C101922B9093C1019091C201932B38
:101190009093C2019091C301982B9093C3019091B9
:1011A000C401982B9093C4019091C501982B909302
:1011B000C5019091C601982B9093C6019091C701EB
:1011C000982B9093C7019091C801982B9093C801D8
:1011D00008950895FC017183608308951F93CF9350
:1011E000DF93EC011AE089919991009739F0DC01C5
:1011F000ED91FC910190F081E02D0995115099F746
:10120000DF91CF911F91089508950895FC011082F8
:101210000895FC0180818F5F80830895FC018081A7
:10122000815080830895FC0160830895FC018081D2
:1012300090E00895FC018FEB91E09183808313820D
:10124000128214820895FC0162831382089521E0C2
:10125000FC0124839093D0018093CF010895FC0179
:1012600014820895FC01828193810895CF93DF93C6
:101270002091C10120FF83C08AE090E09093CD01CE
:101280008093CC0181E08093CE018AEC91E0909331
:10129000D0018093CF0184E68093F90182E08093AE
:1012A000C1011092C2011092C3011092C4011092A8
:1012B000C5011092C6011092C7011092C801609139
:1012C000CC017091CD0183EA91E00E94D701609139
:1012D000F90186EA91E070E00E94D7012091C101F6
:1012E00021FF4FC08091CC019091CD01009709F072
:1012F00048C084E08093C1011092C2011092C301E2
:101300001092C4011092C5011092C6011092C7013B
:101310001092C80189EA91E00E942C021092F90112
:1013200086EA91E060E070E00E94D7012091C1015F
:101330002C7089F088E08093C1011092C201109254
:10134000C3011092C4011092C5011092C6011092FF
:10135000C7011092C801CFECD1E089919991009713
:1013600039F0DC01ED91FC910190F081E02D0995BF
:10137000B1E0C33EDB0789F7DF91CF91089521FDEE
:101380008DCF22FFD5CFB5CF8BB180588BB90E94BE
:1013900097060E94160784E690E09093850280935A
:1013A0008402ECE8F0E0E491E095809195028E23D0
:1013B0008093950208950E94330684E690E090930E
:1013C000870280938602EDE8F0E0E491E095809159
:1013D00095028E238093950208950E94270684E645
:1013E00090E09093890280938802EEE8F0E0E49127
:1013F000E095809195028E238093950208950E9436
:1014000036098AE090E090938B0280938A02EFE89D
:10141000F0E0E491E095809195028E23809395020F
:101420000895E0E9F0E0E491E095809195028E2343
:10143000809395020895E1E9F0E0E491E0958091D0
:1014400095028E23809395020895E2E9F0E0E491FD
:10145000E095809195028E238093950208950E94D5
:1014600091070E94EC070E942D0884E690E090937B
:10147000930280939202E3E9F0E0E491E095809199
:1014800095028E2380939502089540919502A4E8D9
:10149000B2E080E090E02D913C911197211531054B
:1014A00069F02150304011963C932E93211531055F
:1014B00029F4FC01E457FF4FE4914E2B019612965C
:1014C0008830910541F74093950280E090E0FC015F
:1014D000E457FF4FE491E42329F401968930910504
:1014E000B1F70895833041F1843048F08530E1F060
:1014F000853060F0863031F1873009F10895813010
:1015000081F0823058F00E94ED090895E0E9F0E0A2
:10151000E491E095E423E093950208950E94C409C4
:1015200008950E94DB090895E1E9F0E0E491E09577
:10153000E423E093950208950E94FF0908950E9414
:101540002F0A0895E2E9F0E0E491E095E423E093C6
:101550009502089588E08093B80080E88AB9809168
:101560007C00806480937C0080917A008660809308
:101570007A0080917A00806880937A000E94F30656
:101580008091C10088698093C1008091C20086600B
:101590008093C2001092C5008CE08093C4000E942A
:1015A0001F06809181008160809381007894F89477
:1015B00015BC84B5826084BD16BC8EE487BD85E011
:1015C00085BD82E080936E0078948CE890E0FC0109
:1015D000249131965491FC0132964491FC0133964A
:1015E00034910796FC018491252B90919502292B2B
:1015F000242B232B282B209395028091940288235F
:10160000E1F3109294020E94450AF7CF8FEB91E02C
:101610009093CB018093CA011092CD011092CC011E
:101620001092CE010895629FD001739FF001829FB6
:10163000E00DF11D649FE00DF11D929FF00D839F61
:10164000F00D749FF00D659FF00D9927729FB00DFE
:10165000E11DF91F639FB00DE11DF91FBD01CF0111
:10166000112408950790F691E02D0994FB019F0144
:10167000423074F0453264F4642F77270E945C0B8B
:10168000805D8A330CF0895D8193CB010097A1F7CF
:101690001082C9010C944C0BDC01FC01672F719185
:1016A0007723E1F7329704C07C916D937083629148
:1016B000AE17BF07C8F30895AA1BBB1B51E107C0B3
:1016C000AA1FBB1FA617B70710F0A61BB70B881FD2
:1016D000991F5A95A9F780959095BC01CD01089561
:0416E000F894FFCFAC
:1016E4007B2274223A2264222C226964223A220048
:1016F400222C2276223A2200227D000D0A007B222F
:1017040074223A226D222C2276223A22007B227401
:10171400223A2273222C2276223A22007B227479E6
:101724007065223A2264617461222C226964223A2F
:1017340022616930222C2276616C223A2200222C0A
:1017440022756E6974223A226D56227D007B2274C2
:10175400797065223A2264617461222C22696422C0
:101764003A22746930222C2276616C223A220022B9
:101774002C22756E6974223A2226233137363B4374
:10178400227D007431004F3100596F7572206567F6
:101794006720697320646F6E65210000000000CC2F
:0A17A400000100000000000000003A
:00000001FF
